:020000040800F2
:10000000A09D002045010008AD200008691A0008E5
:10001000A9200008BD0900081939000800000000E7
:100020000000000000000000000000005D24000847
:10003000C109000800000000C52100089D25000836
:100040005F0100085F0100085F0100085F01000810
:100050005F0100085F0100085F0100085F01000800
:100060005F0100085F0100085F0100085F010008F0
:100070005F0100085F0100085F0100085F010008E0
:100080005F0100085F0100085F0100085F010008D0
:100090005F0100085F0100085F010008C50B000850
:1000A0005F0100085F0100085F0100085F010008B0
:1000B0005F0100085F0100085F0100085F010008A0
:1000C0005F0100085F0100085F0100085F01000890
:1000D0005F0100085F0100085F010008AD31000802
:1000E0005F0100085F0100085F0100085F01000870
:1000F0005F0100085F0100085F0100085F01000860
:100100005F0100085F0100085F0100085F0100084F
:100110005F0100085F0100085F0100085F0100083F
:100120005F0100085F0100085F0100085F0100082F
:10013000DFF80CD000F0D0FB004800473D45000838
:10014000A09D00200648804706480047FEE7FEE7DE
:10015000FEE7FEE7FEE7FEE7FEE7FEE7FEE7FEE777
:100160001D26000831010008F0B480EA0102D40F16
:100170004200B2EB410F02D20246084611464A0045
:1001800042D0C30DDDB2C1F3C752AD1A202D35DA0E
:10019000C1F3160141F4000204B15242C5F1200638
:1001A00002FA06F12A411044B3EBD05F23D0C4B168
:1001B000012DA0EBC35009DCF0BC4FF0004202EA75
:1001C000C352DBB200F5000000F0BAB9400000F104
:1001D000807000EBC350A0F1807040EAD1704900FC
:1001E00009E0490841EAC071A0EBC35000F50000E6
:1001F000400800EBC350F0BC00F099B96142012205
:1002000002EB4101001BF6E7F0BC704781F00041B2
:10021000AAE780F00040A7E780EA010210B502F0EB
:100220000043400022D04A001FD0010E01EB1261B2
:10023000C0F35600C2F3560240F4000042F400023C
:10024000A0FB022000047F39140400D0401C50EAB7
:10025000124001D44000491EC2B20C0604EBD0107B
:10026000401C4008802A02D003E0002010BD20F08E
:100270000100002900DA0020184310BD30B480EAE4
:10028000010202F0004530F0004221F0004013D09E
:1002900090B1C30DD40DC2F31601C0F31600E41AD9
:1002A00041F4000140F400027D34914201D3641C0A
:1002B00000E04900002C02DA30BC002070474FF407
:1002C00000000023914201D3891A034340084FEAFA
:1002D0004101F7D151B1914202D14FF0004105E007
:1002E00002D24FF0010101E06FF0010103EBC450B5
:1002F000284430BC00F01BB92DE9FE4F81EA03040D
:1003000004F0004421F0004100944FF0000B23F072
:10031000004350EA01045ED052EA03045BD0C3F309
:100320000A54C1F30A552C44A4F2F3340194A0FBFF
:100330000254C1F3130141F48011C3F3130343F4D6
:10034000801301FB024400FB034E840A970A44EA2F
:10035000815447EA8357A4FB076802958D0A05FB81
:1003600007854FEA932C04FB0C542705029D4FEAA6
:10037000065847EA1637B5EB08056EEB070C870EF3
:10038000920E47EA811742EA8312A7FB0201B6EBFD
:100390000B0164EB00042B0D43EA0C335E1844EBB5
:1003A0001C50DA465146E7FB0201C5F313044FEA3D
:1003B0000B3343EA14534FEA0432019C43EA060329
:1003C000A4F10C040294009CCDE900B400F0F3F811
:1003D00003B0BDE8F08F00200146F9E7C10F80EAC5
:1003E000E0700844CA079623002100F0A9B89623BC
:1003F0000022114600F0A4B800F0004220F00040B6
:10040000C10DC0F3160040F400007F2901DA00207E
:100410007047962903DCC1F19601C84001E0963986
:100420008840002AF4D04042704720F00040C10DBF
:10043000C0F3160040F400007F2901DA0020704765
:10044000962903DCC1F19601C8407047963988406F
:10045000704700F0004230F000400AD0C10D01F5B5
:100460006071C0F3160042EA0151C208400711430F
:100470007047002001467047002801DBC0F10040B2
:10048000002901DBC1F1004181427047002801DBF6
:10049000C0F10040002901DBC1F1004188427047F2
:1004A00030B50B46014600202022012409E021FA44
:1004B00002F59D4205D303FA02F5491B04FA02F541
:1004C0002844151EA2F10102F1DC30BD2DE9F05FD8
:1004D0000546002092469B468846064681464024B3
:1004E0001BE0284641464746224600F016FA53468E
:1004F0005A46C01A914110D311461846224600F0C0
:10050000FDF92D1A67EB01084F4622460120002114
:1005100000F0F4F917EB00094E41201EA4F101048C
:10052000DFDC484631462A464346BDE8F09F0029B5
:10053000A8BF7047401C490008BF20F00100704769
:1005400010B4B0FA80FC00FA0CF050EA010404BFC9
:1005500010BC704749B1CCF1200421FA04F411FA1F
:100560000CF118BF012121430843A3EB0C01CB1D63
:100570004FEA00614FEA102042BF002010BC7047D4
:1005800000EBC35010440029A4BF10BC7047401CAE
:10059000490008BF20F0010010BC704710B5002BC7
:1005A00008DA401C41F1000192185B411A4301D165
:1005B00020F0010010BD2DE9F04D92469B4611B18F
:1005C000B1FA81F202E0B0FA80F22032904600F0F7
:1005D00095F904460F4640EA0A0041EA0B015346EA
:1005E0005A46084313D0114653EA010019D0C8F106
:1005F0004002504600F091F905460E4650465946D5
:10060000424600F07BF9084305D0012004E0204673
:100610003946BDE8F08D0020054346EAE0762C43DC
:1006200037430A986305E40AA0EB08000022FD0A9C
:1006300044EA47540A3002D500200146E9E70105A3
:1006400010196941DDE9084500196941BDE8F04D1F
:10065000A4E72DE9FE4F804681EA0300C00F0C4657
:10066000009021F0004123F00045B8EB0200A941C1
:1006700005D24046214690461C460B46024623F0D2
:100680000040104347D0270DC7F30A00C3F30A51B7
:100690000290401A019040286BDAC3F3130040F433
:1006A000801B0098924620B10023D2EB030A63EB33
:1006B0000B0B01985946C0F14002504600F01EF95C
:1006C00006460D4650465946019A00F036F910EBA1
:1006D00008006141002487EA115284EAE7731A4353
:1006E00040D0009A62B3019A012A4FEA075215DC02
:1006F000001B61EB02014FF0004202EA0752CDE914
:100700000042001C41F5801132462B46FFF753FF93
:1007100003B0BDE8F08F40462146F9E7001B61EBCE
:100720000201001C41F5801300185B412018A2F55E
:10073000001747EB030140EAD570B6196D4111E08F
:100740006D084FEA360645EAC0754FEA0752001BAE
:1007500061EB0201001C41F5801149084FEA3000AD
:100760000019514132462B4603B0BDE8F04FFFF768
:1007700015BF0098012240000023D0EB020263EB7A
:10078000E073009821464FEAE074B8EB000061EB9B
:100790000401E9E783F000435BE781F0004158E79B
:1007A0002DE9F04D81EA030404F0004B21F00045EF
:1007B00014464FF0000A23F0004150EA050220D011
:1007C00054EA01021DD0C5F30A570246C5F31303CC
:1007D000C1F31300C1F30A5640F4801543F48013AB
:1007E000A7EB0608101BD64608F2FD3873EB050090
:1007F00002D308F1010801E092185B41B8F1000F43
:1008000003DA00200146BDE8F08D00204FF480118E
:10081000064684460EE0171B73EB050705D3121B33
:1008200063EB050306434CEA010C49084FEA30002C
:1008300092185B4150EA0107EDD152EA030012D051
:1008400082EA040083EA0501084305D0101BAB418E
:1008500006D20122002306E000224FF0004302E00E
:100860006FF0010253101AEB06004CEB085110EB2D
:100870000A0041EB0B01BDE8F04DFFF78FBEC1F35D
:100880000A52C1F3130140F2FF3341F480119A423E
:1008900002DA00200146704740F233439A42A2F246
:1008A000334202DC524200F038B800F027B80000B2
:1008B00030B5002904DB4FF00044404264EB0101F5
:1008C000002B04DB4FF00044524264EB03039942D7
:1008D00008BF904230BD0000064C074D06E0E068BE
:1008E00040F0010394E8070098471034AC42F6D377
:1008F000FFF722FC186C0008386C0008202A04DB83
:10090000203A00FA02F1002070479140C2F1200322
:1009100020FA03F3194390407047202A04DB203A61
:1009200021FA02F00021704721FA02F3D040C2F10F
:1009300020029140084319467047202A06DBCB1756
:10094000203A41FA02F043EAE07306E041FA02F38A
:10095000D040C2F12002914008431946704770B55B
:100960008D1810F8014B14F0030201D110F8012B7F
:10097000231106D110F8013B03E010F8016B01F8D8
:10098000016B521EF9D1ABB110F8012B04F00C042D
:100990008A1A0C2C03D0A2EB84129B1C08E010F8DE
:1009A000014BA2EB0422F8E712F8014B01F8014BCE
:1009B0005B1EF9D5A942D4D3002070BD00BFFEE76D
:1009C000704710B5044603E04FF47A7000F006F863
:1009D0002000A4F10104F7D110BD000010B54FF0C4
:1009E000E02252694FF0E0239B69D21A4FF47A73E8
:1009F0005A434FF0E0235B69B2FBF3F2114B1B68E3
:100A000003EB4304C4EBC31302EBC30100BF4FF07D
:100A1000E02252694FF0E0239B69D21A4FF47A73B7
:100A20005A434FF0E0235B69B2FBF3F2054B1B68BE
:100A300003EB4304C4EBC31302EBC302521A82421A
:100A4000E5D310BD5499002070B5534800780128B3
:100A50007ED15248007852490978884203D15148E2
:100A6000007801284FD1D2244D480078032202FBA0
:100A70001040401CC1B21C2001F01CFA4FF4FC6075
:100A80004949088049A001F0B1FA4448007803229E
:100A900002FB1040401CC1B21C2001F00BFA4FF4C5
:100AA000FC60414908803D48017841A001F09EFA70
:100AB0004FF6FF703C4908801B250AE03848007853
:100AC000032202FB1040C1B2284601F067F8681CFF
:100AD000C5B2B02DF2DB4FF4FC60334908801B2512
:100AE0000AE02E480078032202FB1040C1B22846DB
:100AF00001F054F8681CC5B2B02DF2DB274800782D
:100B00002749087000BF01202A490870254800784D
:100B1000012804D103F0C6FB0020224908702648B2
:100B20000078401C2449087008460078142190FB86
:100B3000F1F201FB120078B92048017820480068E2
:100B400003F0FEFB1D480078401C1C49087000E0C3
:100B500011E000201849087018480078B0281ADB06
:100B60000120104908700A20144908704FF6FF70E0
:100B700000F096FF0FE00A20104908700D48007839
:100B8000012808D14FF6FF7000F08AFF03F0FAFB4E
:100B900000200849087070BD1200002010000020DD
:100BA000110000201400002058990020202000008F
:100BB000256400001300002016000020170000200C
:100BC0000C00002010B5202000F0B0F888B12020E3
:100BD00000F08EF8202000F06DF8002004E00021E5
:100BE000334A1154411CC8B20A28F8DB01203049AD
:100BF0004871402000F09AF888B1402000F078F861
:100C0000402000F057F8002004E00021284A115449
:100C1000411CC8B20A28F8DB0120254988718020D0
:100C200000F084F888B1802000F062F8802000F0A5
:100C300041F8002004E000211D4A1154411CC8B2B3
:100C40000A28F8DB01201A49C8714FF4807000F0BF
:100C50006DF898B14FF4807000F04AF84FF480704E
:100C600000F028F8002004E00021114A1154411C32
:100C7000C8B20A28F8DB01200D4908724FF4007051
:100C800000F054F898B14FF4007000F031F84FF4D0
:100C9000007000F00FF8002004E00021044A115415
:100CA000411CC8B20A28F8DB01200149487210BD76
:100CB0009699002010B50446200D000508B904B12E
:100CC00003E0D42102A003F0AFFA0848046010BD8D
:100CD0002E2E5C4C49425C7372635C73746D3332CC
:100CE000663130785F657874692E630014040140C2
:100CF00010B50446200D000508B904B103E0FC213D
:100D000002A003F091FA0848046010BD2E2E5C4C3E
:100D100049425C7372635C73746D33326631307850
:100D20005F657874692E63001404014070B5044651
:100D300000250026012C31D0022C2FD0042C2DD0E0
:100D4000082C2BD0102C29D0202C27D0402C25D09B
:100D5000802C23D0B4F5807F20D0B4F5007F1DD047
:100D6000B4F5806F1AD0B4F5006F17D0B4F5805F7A
:100D700014D0B4F5005F11D0B4F5804F0ED0B4F5A7
:100D8000004F0BD0B4F5803F08D0B4F5003F05D03C
:100D9000B4F5802F02D0B4F5002F00D103E0E52197
:100DA00008A003F041FA0E48006800EA04060C4867
:100DB00014300068204010B10EB1012500E000257C
:100DC000284670BD2E2E5C4C49425C7372635C7386
:100DD000746D3332663130785F657874692E6300E4
:100DE0000004014070B504460025207910B1207937
:100DF000042800D103E06A2135A003F015FA6079D8
:100E0000082805D060790C2802D06079102800D11C
:100E100003E06B212EA003F007FA20686FF31300A4
:100E200010B9206800B103E06C2129A003F0FCF99F
:100E3000A07910B1A079012800D103E06D2124A090
:100E400003F0F2F9294DA07990B328460068216893
:100E5000884329460860081D006821688843291DC9
:100E600008602079054428682168084328601F48E5
:100E700008300068216888431C4908310860081D53
:100E800000682168884319490C310860607910288E
:100E90000FD1081F00682168084314490831086011
:100EA000081D00682168084310490C3108600EE0F5
:100EB00007E00E4D607905442868216808432860E2
:100EC00005E020790544286821688843286070BDC2
:100ED0002E2E5C4C49425C7372635C73746D3332CA
:100EE000663130785F657874692E630000040140D4
:100EF00070B504460D462CB1022C03D0042C01D051
:100F0000062C00D104E040F2DD1111A003F08CF9B1
:100F10000DB1012D00D104E04FF4EF710CA003F0EE
:100F200083F955B1A000A0F1C040006840F0010174
:100F3000A000A0F1C040016009E0A000A0F1C04005
:100F400000680A490840A100A1F1C041086070BDD5
:100F50002E2E5C4C49425C7372635C73746D333249
:100F6000663130785F66736D632E6300FEFF0F009D
:100F700010B50446206840B12068022805D02068DA
:100F8000042802D02068062800D103E0B321C8A0BD
:100F900003F04AF9606810B16068022800D103E0EC
:100FA000B421C3A003F040F9A06828B1A0680428C8
:100FB00002D0A068082800D103E0B521BCA003F04E
:100FC00033F9E06810B1E068102800D103E0B621E1
:100FD000B7A003F029F9206918B12069B0F5807F26
:100FE00000D103E0B721B2A003F01EF9606918B187
:100FF0006069B0F5004F00D103E0B821ACA003F068
:1010000013F9A06918B1A069B0F5007F00D103E021
:10101000B921A7A003F008F9E06918B1E069B0F5BB
:10102000806F00D103E0BA21A1A003F0FDF8206A8F
:1010300018B1206AB0F5006F00D103E0BB219CA07D
:1010400003F0F2F8606A18B1606AB0F5805F00D111
:1010500003E0BC2196A003F0E7F8A06A18B1A06AEB
:10106000B0F5005F00D103E0BD2191A003F0DCF8F2
:10107000E06A18B1E06AB0F5804F00D103E0BE210C
:101080008BA003F0D1F8206B18B1206BB0F5002FC6
:1010900000D103E0BF2186A003F0C6F8606B0068B2
:1010A0000F2800D803E0C02181A003F0BDF8606BD9
:1010B00040680F2800D803E0C1217DA003F0B4F8F8
:1010C000606B806820B1606B8068FF2800D803E007
:1010D000C22177A003F0A8F8606BC0680F2800D881
:1010E00003E0C32172A003F09FF8606B00690F2832
:1010F00000D803E0C4216EA003F096F8606B40694D
:101100000F2800D803E0C52169A003F08DF8606BBB
:10111000806970B1606B8069B0F1805F09D0606BED
:101120008069B0F1005F04D0606B8069B0F1405F0E
:1011300000D103E0C6215EA003F076F8D4E90101F6
:101140000843E16808432169084361690843A169CC
:101150000843E1690843216A0843616A0843A16AB8
:101160000843E16A0843216B084321688900A1F123
:10117000C0410860A06808280BD120688000A0F159
:10118000C040006840F0400120688000A0F1C040ED
:101190000160606B0068616B496840EA0110616B37
:1011A000896840EA0120616B898940EA0140616BEE
:1011B000098A40EA0150616B097D40EA0160616B78
:1011C000896908432168491C8900A1F1C041086070
:1011D000E06AB0F5804F62D1A06B00680F2800D89C
:1011E00003E0EA2132A003F01FF8A06B40680F284B
:1011F00000D803E0EB212EA003F016F8A06B806866
:1012000020B1A06B8068FF2800D803E0EC2128A063
:1012100003F00AF8A06B00690F2800D803E0ED2165
:1012200023A003F001F8A06B40690F2800D803E069
:10123000EE211FA002F0F8FFA06B806970B1A06BD7
:101240008069B0F1805F09D0A06B8069B0F1005F68
:1012500004D0A06B8069B0F1405F00D103E0EF21C2
:1012600013A002F0E1FFA06B0068A16B496840EA9F
:101270000110A16B896840EA0120A16B098A40EA4C
:101280000150A16B097D40EA0160A16B89690843A7
:1012900021688900A1F1C041C1F8040107E06FF0A5
:1012A000704120688000A0F1C040C0F8041110BD5A
:1012B0002E2E5C4C49425C7372635C73746D3332E6
:1012C000663130785F66736D632E630070B50546D6
:1012D0000C4600265DB1012D09D0022D07D0032D4B
:1012E00005D0042D03D0052D01D0062D00D104E03A
:1012F00040F27A2121A002F097FFECB1012C1BD023
:10130000022C19D0032C17D0042C15D0052C13D087
:10131000062C11D0072C0FD0082C0DD0092C0BD087
:101320000A2C09D00B2C07D00C2C05D00D2C03D087
:101330000E2C01D00F2C00D104E040F27B210FA035
:1013400002F072FFA007010F0F2000FA01F6124809
:10135000A11050F82100B0430F49A21041F822001B
:101360000846A11050F82100A107090F05FA01F164
:1013700008430949A21041F8220070BD2E2E5C4C92
:1013800049425C7372635C73746D333266313078DA
:101390005F6770696F2E6300080001402DE9F05F00
:1013A00005460C464FF00009CA4600260027B04605
:1013B000B3465948854211D0584885420ED0584806
:1013C00085420BD05748854208D05748854205D002
:1013D0005648854202D05648854200D103E0B221EA
:1013E00054A002F021FFE078A0B1E078042811D0E9
:1013F000E07828280ED0E07848280BD0E078142830
:1014000008D0E078102805D0E0781C2802D0E078D9
:10141000182800D103E0B32146A002F005FF002008
:1014200010B9208800B103E0B42142A002F0FCFE14
:10143000E07800F00F09E07800F0100080B1A078AB
:10144000012805D0A078022802D0A078032800D176
:1014500003E0BB2137A002F0E7FEA07840EA0909CB
:10146000207838B3D5F8008000261FE0012000FA6C
:1014700006F7208800EA070ABA4516D1B7000F2000
:1014800000FA07FB28EA0B0809FA07F040EA080807
:10149000E078282803D10120B040686105E0E078B9
:1014A000482802D10120B0402861761C082EDDD3E7
:1014B000C5F800802088FF282BDDD5F804800026A1
:1014C00023E006F10800012101FA00F7208800EA74
:1014D000070ABA4518D1B7000F2000FA07FB28EA1F
:1014E0000B0809FA07F040EA0808E078282803D139
:1014F00006F1080081406961E078482804D106F1CE
:101500000800012181402961761C082ED9D3C5F835
:101510000480BDE8F09F000000080140000C01407D
:10152000001001400014014000180140001C01405F
:10153000002001402E2E5C4C49425C7372635C7348
:10154000746D3332663130785F6770696F2E630077
:101550001FB548208DF80F004FF47870ADF80C00DF
:1015600003208DF80E0003A94C48FFF717FF052153
:101570000120FFF7ABFE06210120FFF7A7FE0721A0
:101580000120FFF7A3FE08210120FFF79FFE09219C
:101590000120FFF79BFE2020019000208DF808001D
:1015A0000C208DF8090001208DF80A0001A8FFF732
:1015B00019FC4020019000208DF808000C208DF8C7
:1015C000090001208DF80A0001A8FFF70BFC80201C
:1015D000019000208DF808000C208DF809000120F2
:1015E0008DF80A0001A8FFF7FDFB4FF48070019011
:1015F00000208DF808000C208DF8090001208DF8DE
:101600000A0001A8FFF7EEFB4FF4007001900020E4
:101610008DF808000C208DF8090001208DF80A00D3
:1016200001A8FFF7DFFB4FF4E06000F0A1FD1720F9
:101630008DF8000000208DF8020002208DF80100D6
:1016400001208DF80300684600F032FD0F20ADF850
:101650000C0018208DF80F0003208DF80E0003A950
:101660000F48FFF79BFE10208DF80F000320ADF808
:101670000C008DF80E0003A90848FFF78FFE10201C
:101680008DF80F003020ADF80C0003208DF80E000F
:1016900003A90448FFF782FE1FBD0000000C0140B3
:1016A00000080140001001402DE9F04704460E46B5
:1016B0000027B8460025A946012C7DD0022C7BD0FE
:1016C000042C79D0082C77D0694884427FD06848B0
:1016D000203084427BD06748844278D0654880308F
:1016E000844274D06448844271D0644884426ED08D
:1016F000634884426BD06348844268D06248844225
:1017000065D0B4F5805F62D0B4F5EA1F5FD0B4F560
:10171000EB1F5CD0B4F5004F59D05C48844256D0E2
:10172000401C844253D0801C844250D0001D84420F
:101730004DD056480F30844249D0B4F1201F46D0D6
:101740004FEAF030844242D0514884423FD0514861
:1017500084423CD05048844239D05048844236D0EC
:101760004F48844233D0B4F5011F30D04D488442F5
:101770002DD0401C84422AD0801C844227D0001DDA
:10178000844224D047480F30844220D045481F303F
:1017900084421CD043483F30844218D041487F30B7
:1017A000844214D03F48FF30844210D03E488442E7
:1017B0000DD03E48844200E009E008D03C48844215
:1017C00005D03C48844202D03B48844200D104E02A
:1017D00040F23E2139A002F027FD0EB1012E00D1CA
:1017E00004E040F23F2135A002F01EFD04F000406D
:1017F000B0F1004F02D13848C56901E0364845686C
:10180000C4F30349A7B204F44010B0F5401F08D157
:1018100025F070653048406820F070602E494860BF
:1018200013E004F48010B0F5801F07D1032000FA04
:1018300009F825EA080545F0706506E0600D00012D
:1018400007FA00F0854345F0706526B1600D01018F
:1018500007FA01F0054304F00040B0F1004F02D157
:101860001D48C56101E01C484560BDE8F0870000E7
:1018700010001400400016000001180000021800BB
:101880000003180000081A00000C1A0001002000D4
:101890000001300000023000000430000011200080
:1018A0000020200001000080000200800004008071
:1018B0000008008000100080002000802E2E5C4C6C
:1018C00049425C7372635C73746D33326631307895
:1018D0005F6770696F2E63000000014070B50546B8
:1018E0000C4600262848854211D0284885420ED053
:1018F000274885420BD02748854208D02648854294
:1019000005D02648854202D02548854200D104E012
:101910004FF48F7123A002F087FC012C25D0022CFC
:1019200023D0042C21D0082C1FD0102C1DD0202C0B
:101930001BD0402C19D0802C17D0B4F5807F14D048
:10194000B4F5007F11D0B4F5806F0ED0B4F5006F00
:101950000BD0B4F5805F08D0B4F5005F05D0B4F5C6
:10196000804F02D0B4F5004F00D104E040F21F11C7
:101970000CA002F059FCA868204008B1012600E044
:101980000026304670BD000000080140000C0140F8
:10199000001001400014014000180140001C0140EB
:1019A000002001402E2E5C4C49425C7372635C73D4
:1019B000746D3332663130785F6770696F2E630003
:1019C00070B504460E4615461848844211D0184892
:1019D00084420ED0174884420BD01748844208D066
:1019E0001648844205D01648844202D015488442E5
:1019F00000D104E04FF4C17113A002F015FC0020E7
:101A000008B906B104E040F283110FA002F00CFC0B
:101A10001448405D20B9012012494855266103E071
:101A2000002010494855666170BD00000008014063
:101A3000000C01400010014000140140001801405A
:101A4000001C0140002001402E2E5C4C49425C737A
:101A500072635C73746D3332663130785F677069BE
:101A60006F2E63005C99002000BFFEE710B50446AE
:101A7000DB23AF220021084600F08AFA002009E0AB
:101A8000002103E0054A14804A1CD1B2DC29F9DBAD
:101A9000411CC8B2B028F3DB10BD00000000086094
:101AA00010B50446B323AF220021084600F070FAB7
:101AB000002009E0002103E0054A14804A1CD1B24D
:101AC000DC29F9DB411CC8B2B028F3DB10BD0000F3
:101AD0000000086070B504462079B02802DB607908
:101AE000DC2800DA04E040F24A2125A002F09CFB49
:101AF0002079A1790844B02800DC04E040F24B21B1
:101B00001FA002F091FB6079E1790844DC2800DC39
:101B100004E04FF413711AA002F086FB6579E679B0
:101B200035446D1EEBB22579A67935446D1EEAB2B7
:101B30006179207900F02CFA002015E000210FE0F7
:101B40002268135C01228A4013401BB12289124B88
:101B50001A8003E04FF6FF720F4B1A804A1CD1B275
:101B60000829EDDB411C88B2E279A37902FB03F17D
:101B7000CA1701EB5272B0EBE20FDFDB70BD000061
:101B80002E2E5C48415244574152455C4472765F68
:101B90004C43442E630000000000086070B5054609
:101BA0000C46B02D01DBDC2C00DA04E040F26121B0
:101BB00006A002F039FB23462A462146284600F0BB
:101BC000E7F9084800880849088070BD2E2E5C4857
:101BD000415244574152455C4472765F4C43442E17
:101BE00063000000589900200000086010B59EB006
:101BF0000121202000F054FB0121402000F050FB87
:101C00000121080200F0E0FA03208DF87600102090
:101C10008DF877004FF4C050ADF874001DA9A248AC
:101C2000FFF7BCFB18208DF877004EF2B370ADF8CB
:101C300074001DA99C48FFF7B1FB4FF68070ADF80A
:101C400074001DA99948FFF7A9FB012016900020F8
:101C500017900F201890002019901A901B901C903C
:101C60000F90109003201190002012901390149068
:101C70001590009001900290102003900020049095
:101C800006900590079008904FF48050099000202E
:101C90000A904FF480400B9000200C9016A80D90F5
:101CA0000FA80E906846FFF763F901210020FFF7A7
:101CB0001FF900247E4804800520FEF78FFE7C4833
:101CC000801C00884FF400607749103108600A20BA
:101CD000FEF777FE4FF000607349103108600A206C
:101CE000FEF76FFE4FF400606F49103108601A2153
:101CF000112000F073F943F22111122000F06EF967
:101D00006C21132000F06AF944F24921142000F0FC
:101D100065F94FF40061102000F060F90A20FEF729
:101D200050FE4FF48D71112000F058F90A20FEF793
:101D300048FE40F21A31112000F050F90A20FEF757
:101D400040FE40F21A71112000F048F90A20FEF717
:101D500038FE40F61A71112000F040F91420FEF709
:101D600030FE40F63A71112000F038F91E20FEF7DF
:101D700028FE4FF48E71012000F030F94FF480718D
:101D8000022000F02BF941F23001032000F026F987
:101D90000021072000F022F940F60801082000F099
:101DA0001DF94FF488510B2000F018F900210C2088
:101DB00000F014F941F201410F2000F00FF9002169
:101DC000152000F00BF90021202000F007F9002178
:101DD000212000F003F9DB21382000F0FFF800217A
:101DE000392000F0FBF80121502000F0F7F840F214
:101DF0000B21512000F0F2F840F60501522000F0CE
:101E0000EDF840F20441532000F0E8F840F60C41B0
:101E1000542000F0E3F80C21552000F0DFF840F2E8
:101E20000111562000F0DAF84FF48061572000F0DD
:101E3000D5F841F20811582000F0D0F840F20C51CA
:101E4000592000F0CBF8AF21362000F0C7F8002170
:101E5000372000F0C3F8DB21382000F0BFF8002164
:101E6000392000F0BBF840F601310F2000F0B6F841
:101E70001621072000F0B2F80220FEF7A2FD17217C
:101E8000072000F0ABF82220094908800A20FEF75D
:101E900098FD4FF480500449103108604FF6FF70F0
:101EA000FFF7E4FD1EB010BD001401400018014012
:101EB000FEFF076070B505460C46A82D01DBCC2C53
:101EC00000DA04E040F2992103A002F0ADF90848DD
:101ED00005700848047070BD2E2E5C48415244576E
:101EE0004152455C4472765F4C43442E63000000CF
:101EF0005A9900205B9900202DE9F04104460D46D7
:101F00001646A82C01DBCC2D00DA04E040F2752146
:101F100016A002F089F905F10F00C3B2E01DC2B2AC
:101F20002946204600F034F800201AE0A6F12001EE
:101F3000144A02EB01110F5C00210EE001228A40DD
:101F40003A4022B1104A1288104B1A8003E04FF633
:101F5000FF720E4B1A804A1CD1B20829EEDB411CDD
:101F6000C8B21028E2DBBDE8F08100002E2E5C48EC
:101F7000415244574152455C4472765F4C43442E73
:101F8000630000000857000858990020000008600E
:101F90002DE9F04104460F4615461E4621463720DE
:101FA00000F01CF82946362000F018F83946392090
:101FB00000F014F83146382000F010F821462020B7
:101FC00000F00CF83946212000F008F822200249E0
:101FD0000880BDE8F0810000FEFF0760024A108023
:101FE000921C118070470000FEFF07600FB410B50F
:101FF000A2B0002425A80090812101A8009B249A6A
:1020000001F09CFC3FE026480078A82807DD00206E
:10201000234908702348007810302249087021486D
:102020000078CC2804DD00201D4908701D49087087
:1020300001A8005D0A280AD1002019490870194832
:102040000078103017490870601CC4B21BE001A86A
:10205000005D0C2807D10020114908701149087053
:10206000601CC4B20FE02046611CCCB201A90A5C1E
:102070000C4801780A480078FFF73EFF08480078CE
:10208000083007490870802C03DA01A8005D002899
:10209000B9D10020009022B010BC5DF814FB000004
:1020A0005A9900205B99002000BFFEE770470000AE
:1020B0002DE9F0410446002500270F26E07810B1F5
:1020C000E078012800D103E0752121A002F0ACF8EE
:1020D0006078102800DA03E076211DA002F0A4F851
:1020E000A078102800DA03E0772119A002F09CF80C
:1020F000E07800B31B48006800F4E060C0F5E060E1
:10210000050AC5F10407EE40607800FA07F5A078EB
:10211000304005432D01144822788554207800F082
:102120001F010120884021784911890001F1E02137
:10213000C1F8000109E0207800F01F01012088406B
:102140000A492278521141F82200BDE8F0810000CE
:102150002E2E5C4C49425C7372635C6D6973632E16
:10216000630000000CED00E000E400E080E100E02E
:1021700010B50446B4F5E06F0BD0B4F5C06F08D0CD
:10218000B4F5A06F05D0B4F5806F02D0B4F5407FF0
:1021900000D103E0632104A002F046F80748204381
:1021A0000749086010BD00002E2E5C4C49425C734C
:1021B00072635C6D6973632E630000000000FA05B2
:1021C0000CED00E07047000070B504460D4640F28B
:1021D000575024EA000008B904B104E040F22B4152
:1021E0000CA002F021F80DB1012D00D104E040F265
:1021F0002C4108A002F018F82DB10D484069204389
:102200000B49486104E00A484069A0430849486115
:1022100070BD00002E2E5C4C49425C7372635C738F
:10222000746D3332663130785F7263632E63000001
:102230000010024070B504460D461048204008B911
:1022400004B104E040F269410DA001F0EDFF0DB1D1
:10225000012D00D104E040F26A4109A001F0E4FF41
:102260002DB10E48C06920430C49C86104E00B48F9
:10227000C069A0430949C86170BD000000360181F2
:102280002E2E5C4C49425C7372635C73746D333206
:10229000663130785F7263632E6300000010024085
:1022A00070B504460D461048204008B904B104E05A
:1022B00040F24A410DA001F0B7FF0DB1012D00D150
:1022C00004E040F24B4109A001F0AEFF2DB10E48F1
:1022D000806920430C49886104E00B488069A04371
:1022E0000949886170BD00000200C0FF2E2E5C4CC1
:1022F00049425C7372635C73746D3332663130785B
:102300005F7263632E6300000010024010B500F09E
:1023100085F9002000F074F801210820FFF78AFFFA
:1023200001213D20FFF7BCFF10BD000030B50021AA
:102330000022002400232D4D6D6805F00C0121B111
:10234000042905D0082923D105E0294D056022E0A4
:10235000274D05601FE0254D6D6805F47012234D73
:102360006D6805F48034022505EB92421CB9214DBD
:10237000554305600BE01D4D6D6805F400351DB13A
:102380001C4D5543056002E0194D5543056002E0C0
:10239000174D056000BF00BF144D6D6805F0F001DA
:1023A0000909154D6B5C0568DD4045600F4D6D6892
:1023B00005F4E061090A104D6B5C4568DD408560FD
:1023C0000A4D6D6805F46051C90A0B4D6B5C456898
:1023D000DD40C560054D6D6805F44041890B074D32
:1023E0006B5CC568B5FBF3F5056130BD00100240BC
:1023F00000127A0000093D006199002071990020C7
:1024000070B5044600255CB1B4F5806F08D0B4F512
:10241000A06F05D0B4F5C06F02D0B4F5E06F00D165
:1024200004E040F27E2105A001F0FEFE0A48456866
:1024300025F4E0652543456070BD00002E2E5C4C00
:1024400049425C7372635C73746D33326631307809
:102450005F7263632E63000000100240704710B586
:1024600000F002F810BD00000CB5002001900090B3
:102470003348006840F480303149086000BF30487C
:10248000006800F4003000900198401C0190009812
:1024900018B90198B0F5A06FF1D12948006800F48F
:1024A000003010B10120009001E000200090009861
:1024B000012843D12348006840F0100021490860FA
:1024C0000846006820F0030008600846006840F0F5
:1024D000020008601A484068194948600846406888
:1024E00048600846406840F480604860084640689C
:1024F00020F47C1048600846406840F4E8104860CA
:102500000846006840F08070086000BF0C48006812
:1025100000F000700028F9D00948406820F003005E
:10252000074948600846406840F00200486000BF24
:102530000348406800F00C000828F9D10CBD0000E9
:10254000001002400020024010B50446042C01D0C7
:10255000601D00B903E0CA210BA001F065FE042C48
:1025600008D14FF0E020006940F004004FF0E02176
:10257000086107E04FF0E020006920F004004FF010
:10258000E021086110BD00002E2E5C4C49425C73B6
:1025900072635C6D6973632E63000000024800681B
:1025A000401C0149086070475499002070B586B0FE
:1025B00001A8FFF7BBFE4FF4FA510298B0FBF1F40B
:1025C0002146B1F1807F00D31DE021F07F40401E05
:1025D0004FF0E022506150170F22002807DA13074E
:1025E0001E0E0C4B00F00F052D1F5E5503E0130768
:1025F0001D0E094B1D5400BF00204FF0E0229061DA
:102600000720106100BF6FF00400FFF79DFF06B0C8
:1026100070BD000018ED00E000E400E010B51348C4
:10262000006840F001001149086008464068104900
:1026300008400E494860084600680E4908400B49AA
:1026400008600846006820F480200860084640685A
:1026500020F4FE0048604FF41F008860FFF7FFFE83
:102660004FF000600449086010BD000000100240F7
:102670000000FFF8FFFFF6FE08ED00E070B504462D
:102680000D46274884422FD0B4F1804F2CD02548E6
:10269000844229D02448844226D02448844223D02E
:1026A0002348844220D0234884421DD022488442BB
:1026B0001AD02248844217D02148844214D021489D
:1026C000844211D0204884420ED0204884420BD04E
:1026D0001F48844208D01F48844205D01E488442C7
:1026E00002D01E48844200D104E040F284511CA074
:1026F00001F09AFD0DB1012D00D104E040F28551A9
:1027000017A001F091FD25B1208840F080002080C5
:1027100004E020884FF67F710840208070BD0000E3
:10272000002C01400004004000080040000C004064
:10273000001000400014004000340140004C0140F3
:10274000005001400054014000180040001C0040AF
:10275000002000400040014000440140004801408A
:102760002E2E5C4C49425C7372635C73746D333221
:10277000663130785F74696D2E63000070B5044671
:102780000D46274884422FD0B4F1804F2CD02548E5
:10279000844229D02448844226D02448844223D02D
:1027A0002348844220D0234884421DD022488442BA
:1027B0001AD02248844217D02148844214D021489C
:1027C000844211D0204884420ED0204884420BD04D
:1027D0001F48844208D01F48844205D01E488442C6
:1027E00002D01E48844200D104E040F229311CA0EE
:1027F00001F01AFD0DB1012D00D104E040F22A31A3
:1028000017A001F011FD25B1208840F001002080C3
:1028100004E020884FF6FE710840208070BD000063
:10282000002C01400004004000080040000C004063
:10283000001000400014004000340140004C0140F2
:10284000005001400054014000180040001C0040AE
:102850000020004000400140004401400048014089
:102860002E2E5C4C49425C7372635C73746D333220
:10287000663130785F74696D2E6300002DE9F04198
:1028800004460D464FF000080026002768488442A1
:1028900029D0B4F1804F26D06648844223D06648C0
:1028A000844220D0654884421DD0654884421AD0B5
:1028B0006448844217D06448844214D063488442F8
:1028C00011D0634884420ED0624884420BD06248E3
:1028D000844208D06148844205D06148844202D0D5
:1028E0006048844200D104E04FF48E715EA001F094
:1028F0009BFC288870B1288810280BD028882028B5
:1029000008D02888302805D02888602802D0288858
:10291000702800D104E040F21D1153A001F084FCA6
:10292000688810B16888012800D104E04FF48F71E5
:102930004DA001F079FC288910B12889022800D126
:1029400004E040F21F1148A001F06EFC208C4FF60D
:10295000FE7108402084268CA788B4F818804FF6B2
:102960008F7008EA0008881E08EA0008288840EAF4
:102970000808481E064028890643688806432C48F4
:1029800084420BD02E48844208D03448844205D07B
:102990003348844202D03348844241D1A88810B1E0
:1029A000A888042800D104E04FF49E712EA001F005
:1029B0003BFC688910B16889082800D104E040F226
:1029C0003D1129A001F030FCE889B0F5007F01D06D
:1029D000E88900B904E04FF49F7123A001F024FCC2
:1029E000A889B0F5807F01D0A88900B904E040F241
:1029F0003F111DA001F018FC4FF6F77006406889E2
:102A000006434FF6FB700640A88806434FF6FF606A
:102A100007404FF6FF500740A8890743E88907435E
:102A2000A780A4F81880E888A0862684BDE8F081F5
:102A3000002C01400004004000080040000C004051
:102A400000340140004C014000500140005401405E
:102A500000180040001C00400020004000400140E1
:102A600000440140004801402E2E5C4C49425C73FA
:102A700072635C73746D3332663130785F74696D84
:102A80002E63000070B504460D460026214884429E
:102A900029D0B4F1804F26D01F48844223D01F484C
:102AA000844220D01E4884421DD01E4884421AD041
:102AB0001D48844217D01D48844214D01C488442CB
:102AC00011D01C4884420ED01B4884420BD01B48B6
:102AD000844208D01A48844205D01A48844202D061
:102AE0001948844200D104E040F2E95117A001F0F6
:102AF0009BFB082D00D005B904E040F2EA5113A079
:102B000001F092FB268B4FF6F77006402E4326838A
:102B100070BD0000002C014000040040000800408F
:102B2000000C004000340140004C014000500140C6
:102B30000054014000180040001C004000200040EC
:102B40000040014000440140004801402E2E5C4CF2
:102B500049425C7372635C73746D333266313078F2
:102B60005F74696D2E6300002DE9F04105460C4647
:102B70004FF00008002600276548854217D0B5F1C0
:102B8000804F14D06348854211D0634885420ED0EF
:102B9000624885420BD06248854208D06148854230
:102BA00005D06148854202D06048854200D104E0EA
:102BB00040F26F115EA001F037FB208870B12088D1
:102BC00010280BD02088202808D02088302805D055
:102BD0002088602802D02088702800D104E04FF4BB
:102BE000B87153A001F020FB608810B16088012803
:102BF00000D104E040F271114DA001F015FB2089D5
:102C000010B12089022800D104E04FF4B97148A026
:102C100001F00AFB288C4FF6EF71084028842E8CB7
:102C2000AF88B5F8188048F6FF7008EA00084FF63C
:102C3000FF4008EA000820884FF6FF7101EA0020F3
:102C400040EA08084FF6DF700640208901EA0010CC
:102C50000643608801EA001006432D48854202D0F1
:102C60002F4885424BD1A08810B1A088042800D1FC
:102C700004E040F28F112EA001F0D6FA608910B165
:102C80006089082800D104E04FF4C87128A001F041
:102C9000CBFAE089B0F5007F01D0E08900B904E00B
:102CA00040F2911122A001F0BFFAA089B0F5807F17
:102CB00001D0A08900B904E04FF4C9711CA001F053
:102CC000B3FA4FF67F70064060894FF6FF7101EA54
:102CD000001006434FF6BF700640A08801EA0010BE
:102CE00006434FF6FF3007404FF2FF700740A089C0
:102CF00001EA80000743E08901EA80000743AF80D2
:102D0000A5F81880E08828872E84BDE8F0810000AF
:102D1000002C01400004004000080040000C00406E
:102D200000340140004C01400018004000400140C8
:102D30002E2E5C4C49425C7372635C73746D33324B
:102D4000663130785F74696D2E63000070B504469B
:102D50000D4600261A48844217D0B4F1804F14D093
:102D60001848844211D0184884420ED01748844233
:102D70000BD01748844208D01648844205D0164824
:102D8000844202D01548844200D104E040F202613E
:102D900013A001F049FA082D00D005B904E040F273
:102DA00003610FA001F040FA268B4FF2FF7006403E
:102DB0004FF6FF7000EA05200643268370BD000031
:102DC000002C01400004004000080040000C0040BE
:102DD00000340140004C0140001800400040014018
:102DE0002E2E5C4C49425C7372635C73746D33329B
:102DF000663130785F74696D2E63000070B50446EB
:102E00000D4600264A4884422FD0B4F1804F2CD082
:102E10004848844229D04848844226D047488442C2
:102E200023D04748844220D0464884421DD046489B
:102E300084421AD04548844217D04548844214D071
:102E40004448844211D0444884420ED043488442CE
:102E50000BD04348844208D04248844205D04248BF
:102E6000844202D04148844200D103E0E72140A0DF
:102E700001F0DAF9688858B16888102808D06888A5
:102E8000202805D06888402802D06888602800D1B2
:102E900003E0E82136A001F0C7F9E88838B1E888F6
:102EA000B0F5807F03D0E888B0F5007F00D103E063
:102EB000E9212FA001F0B8F926881D4884420ED0E0
:102EC000214884420BD0B4F1804F08D01948844285
:102ED00005D01948844202D01848844204D14FF6E4
:102EE0008F700640688806431548844207D015480D
:102EF000844204D04FF6FF400640E888064326800F
:102F0000A888A08528882085094884420BD00E48CF
:102F1000844208D01348844205D01348844202D02A
:102F20001248844201D1287A20860120A08270BDF7
:102F3000002C01400004004000080040000C00404C
:102F4000001000400014004000340140004C0140DB
:102F5000005001400054014000180040001C004097
:102F60000020004000400140004401400048014072
:102F70002E2E5C4C49425C7372635C73746D333209
:102F8000663130785F74696D2E6300002DE9F0477B
:102F9000044600252046FDF72AFA06463748016810
:102FA0003046FDF733F93649086008460168354870
:102FB0000068FDF7D9F833490860002130480068FF
:102FC000FDF764FA02D830482E4908602F492D4891
:102FD0000068FDF75BFA02D82C482A4908602C49A2
:102FE00028480068FDF748FA02D8294825490860B2
:102FF00028480078FDF7FBF98146224801684846D9
:10300000FDF70AF9074624480078FDF7F0F98146F4
:103010001B4801684846FDF7FFF880463946FDF732
:10302000A3F80646FDF7E8F91C4908600846006861
:10303000B0F57A7F02DB4FF47A70086017480068B9
:1030400010F57A7F02DC16481449086013480068BE
:1030500000280DDA1148006840421049086008460F
:10306000008885B2098888B2294600F01BF803E081
:103070003221084600F016F8BDE8F0870C00002069
:10308000240000201C000020000048C200007A44F8
:1030900000007AC421000020200000202800002029
:1030A0001AFCFFFF70B505460C461B4805801B48FF
:1030B000048040F2E7301A49888000200880C880E8
:1030C00048801848FFF79AFE6020174908800120C1
:1030D000488011480088C880002008811148FFF707
:1030E000CDFB08210F48FFF7CDFC01200E49488099
:1030F0000A480088C8800B48FFF736FD08210948B8
:10310000FFF724FE01210748FFF7B8FA012105481F
:10311000FFF734FB70BD000000000020020000201B
:103120007C990020000C00408699002010B586B0E4
:10313000044601210420FFF7B3F801218803FFF7BB
:10314000AFF818208DF8170003208DF816004FF403
:103150000070ADF8140005A91248FEF71FF94820C9
:103160008DF817004FF48060ADF8140005A90D48E4
:10317000FEF714F901940020ADF80800ADF80C003A
:10318000ADF80A00ADF810000C20ADF80E0001A952
:10319000054800F04DFA0121034800F001F906B09E
:1031A00010BD0000000801400038014070B5002249
:1031B00040F22551444800F0A5F9002401F026F919
:1031C000C4B242480078012833D100203F4908703A
:1031D0003F4804703F480078FE2811D13D490870EF
:1031E00026203D490870002004E000213B4A11548C
:1031F000411CC8B20A28F8DB01203849C87111E027
:10320000FF2034490870012033490870002004E091
:103210000021324A1154411CC8B20A28F8DB0120AF
:103220002E49C871012240F22551274800F06AF961
:1032300070BDDD2C3AD0FD2C22D0FE2C0AD0FF2C04
:1032400038D127480068FDF7F0F8C5B2284601F0EC
:10325000FDF830E0012023490870FE201D49087068
:1032600025201D490870002004E000211B4A11544C
:10327000411CC8B20A28F8DB01201849C8711AE0BD
:10328000002018490870FF201249087006201249D2
:103290000870002004E00021104A1154411CC8B2FB
:1032A0000A28F8DB01200D49C87100BF0120074939
:1032B000087000BF00BF00BF012240F22551024844
:1032C00000F020F900BFB3E7004800401A000020DA
:1032D00010000020180000201900002096990020FE
:1032E0000C0000201200002010B586B00446012119
:1032F0001120FEF7D5FF01218804FEF79BFF012175
:103300002448FEF7D1F94FF4E060FEF731FF2720A3
:103310008DF8140000208DF8160001208DF817009C
:1033200005A8FEF7C5FE18208DF8130003208DF8C0
:1033300012004FF48060ADF8100004A91648FEF7A3
:103340002DF848208DF813004FF40060ADF8100000
:1033500004A91148FEF722F800940020ADF80400FB
:10336000ADF80800ADF80600ADF80C000C20ADF883
:103370000A006946094800F05BF9012240F2255134
:10338000064800F0BFF80121044800F009F806B033
:1033900010BD000010001400001001400048004063
:1033A00070B504460D46154884420BD0144884423B
:1033B00008D01448844205D01348844202D01348F0
:1033C000844200D104E04FF4B17111A000F02CFF51
:1033D0000DB1012D00D104E040F263110CA000F00A
:1033E00023FF25B1A08940F40050A08104E0A0890A
:1033F0004DF6FF710840A08170BD0000003801400B
:103400000044004000480040004C00400050004094
:103410002E2E5C4C49425C7372635C73746D333264
:10342000663130785F75736172742E63000000003E
:1034300070B505460C460026254885420BD0254828
:10344000854208D02448854205D02448854202D0D0
:103450002348854200D104E040F26E3121A000F003
:10346000E3FE012C13D0802C11D0402C0FD0202C47
:103470000DD0102C0BD0B4F5807F08D0B4F5007FB0
:1034800005D0082C03D0042C01D0022C00D104E07C
:1034900040F26F3113A000F0C7FEB4F5007F0ED1EB
:1034A0000B48854205D00B48854202D00A48854228
:1034B00000D104E040F273310AA000F0B5FE288884
:1034C000204008B1012600E00026304670BD000013
:1034D000003801400044004000480040004C0040DB
:1034E000005000402E2E5C4C49425C7372635C734A
:1034F000746D3332663130785F75736172742E6328
:10350000000000002DE9F04705460C4617464FF035
:103510000008C246C1460026384885420BD03848CC
:10352000854208D03748854205D03748854202D0C9
:103530003648854200D104E040F2891134A000F001
:1035400073FE282C19D040F22770844215D040F227
:103550002660844211D040F2255084420DD040F2C2
:103560002440844209D040F64600844205D040F60B
:103570006A10844201D0602C00D104E04FF4C57180
:1035800023A000F051FE0FB1012F00D104E040F262
:103590008B111FA000F048FE40F66A1084420ED145
:1035A0001648854205D01648854202D01548854206
:1035B00000D104E040F28F1115A000F035FE2E4638
:1035C000C4F3421804F01F0A012000FA0AF9B8F106
:1035D000010F01D10C3605E0B8F1020F01D1103610
:1035E00000E0143627B1306840EA0900306003E09B
:1035F000306820EA09003060BDE8F08700380140FB
:103600000044004000480040004C00400050004092
:103610002E2E5C4C49425C7372635C73746D333262
:10362000663130785F75736172742E63000000003C
:103630002DE9F04786B005460C460026B24600BF8D
:10364000B14600276B4885420BD06B48854208D0B5
:103650006A48854205D06A48854202D06948854259
:1036600000D103E0B82168A000F0DEFD206820B1A1
:103670006D492068884200D203E0B92162A000F0C1
:10368000D3FDA08818B1A088B0F5805F00D103E019
:10369000BA215DA000F0C8FDE08858B1E088B0F51F
:1036A000805F07D0E088B0F5005F03D0E088B0F518
:1036B000405F00D103E0BB2153A000F0B5FD20899D
:1036C00038B12089B0F5806F03D02089B0F5C06F84
:1036D00000D103E0BC214CA000F0A6FD60894FF6AC
:1036E000F371084010B9608900B103E0BD2146A024
:1036F00000F09AFDA08958B1A089B0F5807F07D06D
:10370000A089B0F5007F03D0A089B0F5407F00D13B
:1037100003E0BE213CA000F087FDA08968B13548D8
:10372000854205D03448854202D03448854200D1D4
:1037300003E0C22134A000F077FD2F462E8A4CF61C
:10374000FF700640E08806432E82AE894EF6F310E5
:103750000640A08821890843618908430643AE8159
:10376000AE8A4FF6FF400640A0890643AE8201A80C
:10377000FEF7DCFD1F48874202D1DDF810A001E012
:10378000DDF80CA0A88900F4004040B10AEBCA00A3
:1037900000EB0A1021684900B0FBF1F807E00AEBE2
:1037A000CA0000EB0A1021688900B0FBF1F8642020
:1037B000B8FBF0F006013009642101FB1089A889EB
:1037C00000F4004040B1322000EBC900B0FBF1F042
:1037D00000F00700064308E0322000EB09106421E6
:1037E000B0FBF1F000F00F0006432E8106B0BDE8FB
:1037F000F0870000003801400044004000480040CD
:10380000004C0040005000402E2E5C4C49425C733E
:1038100072635C73746D3332663130785F757361D7
:1038200072742E630000000021AA440010B5044603
:103830000C4884420BD00C48844208D00B48844288
:1038400005D00B48844202D00A48844200D104E0EB
:103850004FF4197108A000F0E7FCA088C0F308003D
:1038600010BD000000380140004400400048004006
:10387000004C0040005000402E2E5C4C49425C73CE
:1038800072635C73746D3332663130785F75736167
:1038900072742E630000000070B504460D46114896
:1038A00084420BD01048844208D01048844205D08E
:1038B0000F48844202D00F48844200D104E040F215
:1038C00053210DA000F0B0FCB5F5007F00DA04E054
:1038D0004FF4157108A000F0A7FCC5F30800A08004
:1038E00070BD000000380140004400400048004026
:1038F000004C0040005000402E2E5C4C49425C734E
:1039000072635C73746D3332663130785F757361E6
:1039100072742E630000000000BFFEE70FB4054B79
:1039200010B503A9044A029800F0DCF810BC5DF859
:1039300014FB0000CD430008789900207CB5491E97
:103940001C461546CDE90001044B6A46214628462F
:1039500000F0C8F8009A002111707CBD13420008E5
:1039600002E008C8121F08C1002AFAD17047704748
:10397000002001E001C1121F002AFBD170470000A6
:103980002DE9FF5FDDE90220010DDDF838B00243CB
:1039900018D044F61050A1F2FF3141430D140F9896
:1039A000012820D0A5EB0B00401C5FEA000A4FF075
:1039B0000004474EDFF81C91A046504616D5CAF1C8
:1039C000000728E00F98012443A2012808D0002115
:1039D00000980F9BC0E90021C0E90243BDE8FF9FAA
:1039E0006FEA0B01F4E7CBF10000DEE7074612E0D7
:1039F000F80707D02246334640464946FCF77CFC90
:103A0000804689462246334610461946FCF774FC28
:103A100004460E467F10002FEAD1DDE90201BAF11B
:103A2000000F42464B4602DAFCF766FC01E0FCF769
:103A3000B7FE04460E460022284BFCF739FF03D898
:103A40004FF0FF30014607E00022254B204631466B
:103A5000FCF7FFFDFCF713FF102409E0002C0ADB44
:103A60000A220023FCF732FD019B30321A55641EF6
:103A700050EA0102F2D1641C019AC4F1110314440A
:103A80000F9A012A03D0012208430DD10AE008430E
:103A900004D000204FF0110B0F9080E7A3EB0B0533
:103AA0006D1E0DE05B4504DD4FF0000205F10105E0
:103AB00004E003DA4FF00002A5F10105002AECD082
:103AC00000980F99C0E90231C0E9004586E700007F
:103AD000000024400000F03F300000000000F043F0
:103AE0000000E03F2DE9FF4F95B09B468946064612
:103AF00000250FE2252877D100242746F84A012126
:103B0000059400E0044316F8013F203B01FA03F05E
:103B10001042F7D130782A2811D06FF02F03307877
:103B2000A0F13002092A16D8059A44F0020402EBEB
:103B3000820203EB42021044761C0590EFE759F82D
:103B4000042B0592002A03DA504244F400540590F5
:103B500044F00204761C30782E2816D116F8010F96
:103B600044F004042A280DD06FF02F023078A0F121
:103B70003003092B09D807EB870302EB4303C7186F
:103B8000761CF3E759F8047B761C30786C280FD04C
:103B900006DC4C2817D068280DD06A2814D104E020
:103BA000742810D07A280FD10DE044F400140AE0F4
:103BB00044F4801401E044F440147278824202D14B
:103BC00004F58014761C761C307866280BD013DC44
:103BD000582877D009DC002875D04528F6D046282B
:103BE000F4D047281AD19DE118E0632835D0642825
:103BF00079D0652812D195E1702873D008DC672848
:103C0000F1D069286FD06E280DD06F2806D1B5E0AD
:103C100073282CD0752875D0782874D05A461799F7
:103C200090476D1C75E1C4F30250022809D00328A7
:103C30000DD0D9F8001004280DD00D6009F1040949
:103C400067E1D9F80010EA17C1E90052F6E7D9F8A0
:103C500000100D80F2E70D70F0E719F8041B8DF8E5
:103C6000001000208DF80100EA46012003E059F819
:103C700004AB4FF0FF3061074FF0000102D40DE0BC
:103C800008F101018846B9420FDA8045F8DB1AF8DD
:103C900008100029F4D108E008F1010188468142AA
:103CA000FADB1AF808100029F6D105985B46A0EB5C
:103CB000080721463846179A00F094FA284400EB8A
:103CC000080507E04DE029E10DE01AF8010B5A461E
:103CD00017999047B8F10108F7D25B46214638465C
:103CE000179A13E142E00A220092C4F302524FF005
:103CF000000A022A08D059F804CB032A4FEAEC71D3
:103D00000AD00DE029E02AE009F1070121F00702BD
:103D1000F2E802C1914609E00FFA8CFC4FEAEC711F
:103D2000042A03D14FFA8CFC4FEAEC71002907DA20
:103D30000A460021DCF1000C61EB02012D2202E0B9
:103D4000220504D52B228DF80420012203E0E2078E
:103D500001D02022F7E7904659E00A2102E0102224
:103D60000DE010214FF0000A00910BE010224FF0FF
:103D7000000A44F004040827009203E008224FF0F0
:103D8000000A0092C4F30252022A05D059F804CB6B
:103D90000021032A08D009E009F1070121F00702F8
:103DA000F2E802C1914605E01FFA8CFC042A01D119
:103DB0000CF0FF0C4FF00008220728D5702806D021
:103DC000009B83F0100353EA0A0305D00EE0402263
:103DD0008DF80420012208E05CEA010206D03022BE
:103DE0008DF804208DF8050002229046009B83F098
:103DF000080353EA0A030AD15CEA010201D162070F
:103E000005D530228DF804204FF001087F1E582878
:103E100004D034A003900EA802900DE036A0F9E77C
:103E200053466046009AFCF751FB84460398825C37
:103E30000298401E029002705CEA0100F0D10298E4
:103E400006A9081A00F1200A600702D524F480347C
:103E500000E00127574502DDA7EB0A0000E0002043
:103E600000EB0A01009005984144401A0590E003D8
:103E700006D45B462146179A059800F0B3F905442D
:103E8000002706E001A85A46C05D179990476D1CAF
:103E90007F1C4745F6DBE0030CD55B462146179AAD
:103EA000059800F09FF9054404E030205A46179920
:103EB00090476D1C0099481E00900029F5DC08E031
:103EC000029802995A460078491C02911799904726
:103ED0006D1CBAF10001AAF1010AF1DC65E10000F4
:103EE00009280100303132333435363738396162D0
:103EF0006364656600000000303132333435363794
:103F000038394142434445460000000000F058F96A
:103F10000544761C307800287FF4ECAD19B02846B3
:103F2000BDE8F08F620700D4062709F1070222F0EE
:103F3000070CFCE80223E14603F000485FEA080CA6
:103F400002D00FF2702C0DE05FEA045C02D50FF294
:103F5000682C07E05FEAC47C02D00FF2602C01E01D
:103F6000AFF2700C4FF0FF3823F00043CDF850C093
:103F700065280CD006DC452809D046281DD04728E6
:103F80003DD13DE0662818D067287ED138E0002179
:103F9000112F01DB112000E0781CCDE9000106A9FA
:103FA0000EA8FFF7EDFCDDE90F010E9A0391002149
:103FB000009207F1010A04914DE04FF00040009794
:103FC000CDE9011006A90EA8FFF7DAFCDDE90F0222
:103FD00003920E9B11990022DDF80CA0009304922D
:103FE00011B9791C00EB010AB7EB0A0004D4C0F147
:103FF000FF3007F1010A0490AAEB0700019044E0AA
:10400000012F00DA01270021112F01DD112000E02E
:104010003846CDE9000106A90EA8FFF7B1FCDDE99D
:104020000F010E9A0391002104910092BA462107D4
:104030000CD40399514500DA8A46BAF1010F05DD27
:10404000009AAAF10101515C302908D0B84202DA85
:1040500010F1040F06DA0121CDE9011015E0AAF1F3
:104060000101E9E7002805DC049901440491AAEB69
:10407000000102E0411C514500DD8A460499401AC6
:10408000401C01904FF000400290200704D401989A
:10409000504501DBCDF8048000208DF84F000298D8
:1040A0000DF14F07B0F1004F25D02B200E90029854
:1040B0004FF0020800280CDA404202902D200E90AA
:1040C00007E00A210298FCF7EBF93031029007F87B
:1040D000011DB8F10001A8F10108F2DC02980028E6
:1040E000EFD1791E0E980870307800F0200040F073
:1040F000450007F8020D12A8C01B00F1070814982C
:10410000007800B1012000EB0A01019801EBE07199
:1041100005984144401A401E0590E00306D45B46D2
:104120002146179A059800F05DF805441498007828
:1041300018B15A46179990476D1CE00324D55B4689
:104140002146179A059800F04DF805441CE00498A4
:10415000002807DBDDE90301884203DD0098405CAD
:10416000179901E0179930205A469047049805F1B5
:104170000105401C04900198401E019004D12E209E
:104180005A46179990476D1CBAF10001AAF1010A2D
:10419000DDDC05E017F8010B5A46179990476D1CB6
:1041A000B8F10001A8F10108F4DC5B462146179A3A
:1041B0000598ABE62D0000002B0000002000000059
:1041C0002DE9F041044600251E461746880404D414
:1041D00005E039462020B0476D1C641EF9D52846FD
:1041E000BDE8F0812DE9F041044600251E469046C9
:1041F000C80301D5302700E02027880404D505E056
:1042000041463846B0476D1C641EF9D52846BDE8C6
:10421000F0814A68002A06D00A68531C0B601070AF
:104220004868401E4860704704460D4608E02A462C
:10423000214604A0FFF772FB4FF47A70FCF7C1FB34
:10424000F5E70000417373657274696F6E206661F3
:10425000696C65643A2066696C65202573206F6E11
:10426000206C696E652025640D0A000070B5024659
:104270000C46FF25FF2309E012F8010B80EA050137
:104280000648405C80EA03050548435C2000A4F131
:104290000106F4B2F0D143EA052070BD08550008CC
:1042A0000856000870B54FF4784023490880002470
:1042B0000FE0002509E005EB4500C0F19600C1B212
:1042C0002046FDF76BFC681CC5B2332DF3DB601C88
:1042D000C4B2052CEDDB00252AE0002424E0C4EB69
:1042E0000410C0F19600C1B22846FDF757FCC4EB9C
:1042F0000410C0F19600C1B20B20FDF7DBFD1F20BA
:104300000D49088004EB840014300A2190FBF1F27F
:1043100001FB120030B904EB840000F1140107A086
:10432000FDF764FE601CC4B20B2CD8DB681CC5B260
:104330000A2DD2DB70BD00005899002025640000D2
:104340002DE9F04705460C46D22600200B4908808F
:104350000B492846FBF760FF81463046FCF747F8DB
:1043600082464946FBF752FF8046FCF75EF8C7B22B
:1043700039462046FDF712FCBDE8F0875899002029
:104380000000404070B50024002516E0002610E033
:104390000C4830F814000C49088005F12302D1B212
:1043A00006F11202D0B2FDF7F9FB601C84B2701C5A
:1043B000C6B28C2EECDB681CC5B28C2DE6DBE0B2FD
:1043C00070BD0000340000205899002070B50446EC
:1043D0000D46E1B20548FFF75FFA00BF40210348F0
:1043E000FFF726F80028F9D0204670BD00380140BC
:1043F00010B500BF20210448FFF71AF80028F9D0B3
:104400000148FFF713FA10BD0038014010B500BF96
:1044100020210448FFF70CF80028F9D00148FFF7E5
:1044200005FA10BD0048004010B50446E1B2064848
:10443000FFF732FA00BF40210348FEF7F9FF0028DA
:10444000F9D0012010BD00000038014010B504462D
:10445000E1B20648FFF720FA00BF40210348FEF70B
:10446000E7FF0028F9D0012010BD000000480040FF
:104470002DE9FC5F002000900190EA46441E00BF39
:1044800000F006F9002505E0FFF7B2FFC0B20DF815
:1044900005006D1C072DF7DB601C44B26421282049
:1044A000FDF708FD4FF478401B4908801CB12146F8
:1044B0001AA0FDF79BFD05215046FFF7D7FE9DF89A
:1044C00006109DF8052041EA02218842D8D19DF8C6
:1044D00003609DF8047047EA0620FBF77FFF8346E0
:1044E0000A212820FDF7E6FC4FF478400A490880AD
:1044F0000F495846FBF7C2FE0546FBF7AAFF804668
:1045000042460B460BA0FDF771FD09495846FBF7E3
:10451000B5FEBDE8FC9F00005899002064617461FD
:10452000206672616D206572726F723A25640000B8
:1045300000002041252E3166274300000EB5FDF70F
:10454000E5FEFEF733F8FDF703F84FF41650FEF7DB
:10455000EDFD4FF4E130FEF7C7FE36A0FFF7DEF9C0
:10456000FDF744FB34480090B0208DF806008DF82C
:10457000070000208DF8040015208DF805001F208D
:10458000ADF808006846FDF7A5FA4FF47A70FCF71D
:1045900018FA4FF6FF70FDF769FA00210846FDF79B
:1045A00089FC4FF478402549088025A0FDF71EFDC1
:1045B00032210020FDF77EFC1F202049088020A02A
:1045C000FDF714FD4FF47A70FCF7FBF94FF6FF701E
:1045D000FDF74CFAB4210A20FDF76CFC4FF478404B
:1045E000164908802048017820A0FDF7FFFCC32170
:1045F0000A20FDF75FFC0020104908801FA0FDF78E
:10460000F5FC0F210A20FDF755FCFFF7BBFE10E07B
:10461000002202211C48FDF7D3F900F047F8FFF70C
:1046200027FF1A490860FCF70FFA0F480078FEF7D9
:10463000ADFCEDE70D0A0000F85C00085899002079
:10464000546869732069732061206E6577626565BF
:104650002070726F6A6563742E0A204259202337D6
:104660002D3333370A0000001000002054656D70B0
:104670005F4465736972653A25640000445241578E
:104680005F54454D50000000000C01400C0000201C
:1046900010B5002404E00449085DFFF7C5FE641C62
:1046A000082CF8DB10BD00002C00002010B5FE48DF
:1046B0000078FE2802D10120FC490870FC484079AE
:1046C00000287DD00020FA4948710A20FCF779F9CA
:1046D0002021F848FDF702F9002871D1F24800784E
:1046E000FE2802D0FF286CD18FE0F3480078202804
:1046F0007DD0252804D026283CD02A2876D17DE0FC
:104700004FF6FF70FDF7CCF9B4210A20FDF7D2FB7C
:104710000020EA490880EAA0FDF768FCC3210A20CE
:10472000FDF7C8FB4FF47840E4490880E4A0FDF7AA
:104730005DFC0120E6490870B4210A20FDF7BAFBB0
:104740004FF47840DD490880E2480178E2A0FDF7A7
:104750004DFCC3210A20FDF7ADFB0020D74908809E
:10476000E1A0FDF743FC0120D3490870FF20CE49AA
:10477000087048E0D7480078401ED6490870B42138
:104780000A20FDF797FB0020CC490880CCA0FDF75C
:104790002DFCC3210A20FDF78DFB4FF47840C7495B
:1047A0000880C7A0FDF722FCB4210A20FDF782FB98
:1047B0004FF47840C1490880C6480178C6A002E09D
:1047C00099E095E013E0FDF711FCC3210A20FDF705
:1047D00071FB0020B9490880C5A0FDF707FCFE2049
:1047E000B14908702620B44908700CE00AE0FE20A8
:1047F000AD4908702620B049087004E02620AE4973
:10480000087000E000BF00BF73E0AB4800780128EB
:1048100039D0062869D1FFF7B5FDB4210A20FDF78C
:1048200049FB0020A5490880A5A0FDF7DFFBC321B7
:104830000A20FDF73FFB4FF47840A0490880A0A074
:10484000FDF7D4FB0020A2490870B4210A20FDF72F
:1048500031FB4FF47840994908809E4801789EA02A
:10486000FDF7C4FBC3210A20FDF724FB0020934978
:1048700008809FA0FDF7BAFB26208F490870FE2014
:104880008949087032E093480078401E91490870C9
:10489000B4210A20FDF70EFB00208849088088A07B
:1048A000FDF7A4FBC3210A20FDF704FB4FF4784079
:1048B0008249088082A0FDF799FBB4210A20FDF708
:1048C000F9FA4FF478407D4908808248017882A047
:1048D000FDF78CFBC3210A20FDF7ECFA0020774995
:1048E000088081A0FDF782FB00E000BF00BF00E070
:1048F00000BF00BF10BD6E48807900287ED0002028
:104900006B4988710A20FCF75CF840216948FCF784
:10491000E5FF002872D164480078FE2802D0FF2805
:104920006DD10CE164480078202870D0252804D08F
:10493000262835D02A287DD19EE0B4210A20FDF713
:10494000B9FA00205D4908805DA0FDF74FFBC32147
:104950000A20FDF7AFFA4FF478405849088058A074
:10496000FDF744FBB4210A20FDF7A4FA4FF4784088
:10497000524908805748017857A0FDF737FBC321FB
:104980000A20FDF797FA00204C49088058A0FDF74F
:104990002DFB262048490870FE2043490870CCE0D2
:1049A000B4210A20FDF786FA00204449088044A07B
:1049B000FDF71CFBC3210A20FDF77CFA4FF4784079
:1049C0003E4908803EA0FDF711FBB4210A20FDF707
:1049D00071FA0020394908803E4801783EA0FDF771
:1049E00005FBC3210A20FDF765FA4FF478403349EF
:1049F00008803FA0FDF7FAFA252002E019E115E151
:104A000005E02D490870FE202749087095E0B42183
:104A10000A20FDF74FFA00202849088028A0FDF75A
:104A2000E5FAC3210A20FDF745FA4FF478402349FF
:104A3000088000E080E022A0FDF7D8FAB4210A2027
:104A4000FDF738FA4FF478401C4908802148017876
:104A500021A0FDF7CBFAC3210A20FDF72BFA002095
:104A60001649088022A0FDF7C1FAFE200E49087001
:104A700026201149087060E0B4210A20FDF71AFAD7
:104A800000200E4908800EA0FDF7B0FAC3210A20CD
:104A9000FDF710FA4FF478400849088008A0FDF7A8
:104AA000A5FAB4210A2029E01800002014000020F3
:104AB00096990020000C0140190000205899002010
:104AC0002020202020202020202020202020200006
:104AD000120000201000002054656D705F44657363
:104AE0006972653A256400004241434B00000000B2
:104AF000445241575F54454D50000000FDF7DAF92C
:104B00004FF47840FE490880FE480178AFF2380043
:104B1000FDF76CFAC3210A20FDF7CCF90020F84913
:104B20000880AFF23400FDF761FAFE20F649087004
:104B30002620F649087000E000BF00BF77E0F34888
:104B40000078012838D006286DD1B4210A20FDF75D
:104B5000B1F90020EA490880AFF29C00FDF746FA5F
:104B6000C3210A20FDF7A6F94FF47840E4490880F4
:104B7000AFF2B400FDF73AFAB4210A20FDF79AF932
:104B80004FF47840DE490880DE480178AFF2B80083
:104B9000FDF72CFAC3210A20FDF78CF90020D84933
:104BA0000880AFF2BC00FDF721FA0120D749087058
:104BB000FF20D549087037E0B4210A20FDF77AF9C3
:104BC0000020CF490880AFF20810FDF70FFAC3218B
:104BD0000A20FDF76FF94FF47840C9490880AFF219
:104BE0002010FDF703FAB4210A20FDF763F9002035
:104BF000C3490880C3480178AFF22410FDF7F6F9E5
:104C0000C3210A20FDF756F94FF47840BC490880CB
:104C1000AFF22C10FDF7EAF90620BC490870FF201E
:104C2000B949087000E000BF00BF00E000BF00BF4E
:104C300060E6B748C07900287DD00020B449C8712B
:104C40000A20FBF7BEFEB0480078FE2802D0FF28FD
:104C500072D1F5E0AD48007820286ED0252804D028
:104C6000262840D02A2869D1B0E00120A94908703F
:104C70004FF6FF70FCF714FFB4210A20FDF71AF974
:104C800000209F490880AFF2C810FDF7AFF9C3219B
:104C90000A20FDF70FF94FF4784099490880AFF2E8
:104CA000E010FDF7A3F9B4210A20FDF703F94FF452
:104CB00078409349088093480178AFF2E410FDF7FB
:104CC00095F9C3210A20FDF7F5F800208C490880EA
:104CD000AFF2EC10FDF78AF901208C490870FF2033
:104CE00089490870AAE0B4210A20FDF7E3F8002002
:104CF00083490880AFF23820FDF778F9C3210A20F4
:104D0000FDF7D8F84FF478407D490880AFF2502085
:104D1000FDF76CF9B4210A20FDF7CCF84FF4784088
:104D20007749088077480178AFF25420FDF75EF9A3
:104D3000C3210A2003E011E10DE110E07DE0FDF761
:104D4000B9F800206E490880AFF25C20FDF74EF9FB
:104D500026206E490870FE206B4908706EE0B42171
:104D60000A20FDF7A7F8002065490880AFF2B020BF
:104D7000FDF73CF9C3210A20FDF79CF84FF4784079
:104D80005F490880AFF2C820FDF730F9B4210A204E
:104D9000FDF790F84FF47840594908805948017858
:104DA000AFF2CC20FDF722F9C3210A20FDF782F8EB
:104DB000002053490880AFF2C820FDF717F92620DC
:104DC00052490870FE205049087037E0B4210A208B
:104DD000FDF770F800204A490880AFF21C30FDF75B
:104DE00005F9C3210A20FDF765F84FF478404449DE
:104DF0000880AFF23430FDF7F9F8B4210A20FDF74E
:104E000059F84FF478403E4908803E480178AFF2A7
:104E10003830FDF7EBF8C3210A20FDF74BF80020EE
:104E200037490880AFF23830FDF7E0F826203749DF
:104E30000870FE203449087000E000BF00BF8BE01E
:104E40003248007801283DD006287DD10020314924
:104E50000870FFF797FAB4210A20FDF72BF800201D
:104E600027490880AFF2A830FDF7C0F8C3210A2017
:104E7000FDF720F84FF4784021490880AFF2C030A8
:104E8000FDF7B4F8B4210A20FDF714F84FF4784088
:104E90001B4908801B480178AFF2C430FDF7A6F823
:104EA000C3210A20FDF706F8002015490880AFF25B
:104EB000C030FDF79BF8FE201349087026201349E7
:104EC000087046E0B4210A20FCF7F4FF00200C49EA
:104ED0000880AFF21440FDF789F8C3210A20FCF7DF
:104EE000E9FF4FF4784006490880AFF22C40FDF707
:104EF0007DF8B4210A20FCF7DDFF4FF478400BE089
:104F000058990020100000201800002019000020EF
:104F10009699002012000020FE490880FE48017882
:104F2000AFF24C40FDF762F8C3210A20FCF7C2FF44
:104F30000020F8490880AFF25040FDF757F8FF20F5
:104F4000F6490870012000E002E0F549087000E031
:104F500000BF00BF00E000BF00BFCBE4F148007A13
:104F600000287CD00020EF4908720A20FBF729FDB9
:104F70004FF48071EC48FCF7B1FC00286FD1E74892
:104F80000078FE2802D0FF286AD1EEE0E4480078DD
:104F9000202879D0252804D0262839D02A2872D173
:104FA000A9E0B4210A20FCF785FF0020D949088038
:104FB000AFF2F440FDF71AF8C3210A20FCF77AFF9C
:104FC0004FF47840D3490880AFF20C50FDF70EF84B
:104FD000B4210A20FCF76EFF4FF47840CD490880D9
:104FE000CD480178AFF21050FDF700F8C3210A2038
:104FF000FCF760FF0020C7490880AFF20C50FCF7B7
:10500000F5FF2620C6490870FE20C4490870AAE0B2
:10501000B4210A20FCF74EFF0020BE490880AFF201
:105020006050FCF7E3FFC3210A20FCF743FF4FF475
:105030007840B8490880AFF27850FCF7D7FFB42128
:105040000A20FCF737FF0020B2490880B2480178F7
:10505000AFF27C50FCF7CAFFC3210A2002E0FEE059
:10506000FAE011E0FCF726FF4FF47840A9490880E8
:10507000AFF28450FCF7BAFF2520A9490870FE2042
:10508000A64908706FE06DE0B4210A20FCF712FF1A
:105090000020A0490880AFF2D850FCF7A7FFC32139
:1050A0000A20FCF707FF4FF478409A490880AFF2D6
:1050B000F050FCF79BFFB4210A20FCF7FBFE4FF4F5
:1050C00078409449088094480178AFF2F450FCF796
:1050D0008DFFC3210A20FCF7EDFE00208D490880DA
:1050E000AFF2FC50FCF782FF26208D490870FE20AD
:1050F0008A49087037E0B4210A20FCF7DBFE002063
:1051000084490880AFF24860FCF770FFC3210A2091
:10511000FCF7D0FE4FF478407E490880AFF2606023
:10512000FCF764FFB4210A20FCF7C4FE4FF478407A
:105130007849088078480178AFF26460FCF756FF40
:10514000C3210A20FCF7B6FE002072490880AFF2A6
:105150006860FCF74BFF262071490870FE206F49FC
:10516000087000E000BF00BF77E06D4800780128BC
:1051700038D006286DD1B4210A20FCF79BFE002010
:1051800064490880AFF2C860FCF730FFC3210A20F1
:10519000FCF790FE4FF478405E490880AFF2E06083
:1051A000FCF724FFB4210A20FCF784FE4FF478407A
:1051B0005849088058480178AFF2E460FCF716FFC0
:1051C000C3210A20FCF776FE002052490880AFF286
:1051D000E860FCF70BFF012051490870FF204F49A0
:1051E000087037E0B4210A20FCF764FE002049492A
:1051F0000880AFF23470FCF7F9FEC3210A20FCF7F7
:1052000059FE4FF4784043490880AFF24C70FCF7E8
:10521000EDFEB4210A20FCF74DFE00203D49088038
:105220003D480178AFF25070FCF7E0FEC3210A2040
:10523000FCF740FE4FF4784036490880AFF25870D2
:10524000FCF7D4FE062036490870FF203349087069
:1052500000E000BF00BF00E000BF00BFE8E431484D
:10526000407A00287ED000202E4948720A20FBF7A1
:10527000A8FB4FF400712C48FCF730FB002871D1DB
:1052800026480078FE2802D0FF286CD1AAE02448E6
:105290000078202868D0252804D026284FD02A2836
:1052A0007ED195E00120214908704FF6FF70FCF790
:1052B000F7FBB4210A20FCF7FDFD0020154908800A
:1052C000AFF60400FCF792FEC3210A20FCF7F2FDC2
:1052D0004FF478400F490880AFF61C00FCF786FEBB
:1052E000B4210A20FCF7E6FD4FF478400949088014
:1052F00009480178AFF62000FCF778FEC3210A20A8
:10530000FCF7D8FD002003490880AFF62400FCF725
:105310006DFE0DE0589900201000002018000020BC
:105320001900002096990020000C01401200002076
:10533000012070490870FF206F49087050E06F48E5
:105340000078401C6D490870B4210A20FCF7B2FDBA
:1053500000206B490880AFF69800FCF747FEC32198
:105360000A2002E0C3E0BFE02BE0FCF7A3FD4FF40E
:10537000784063490880AFF6B800FCF737FEB421E7
:105380000A20FCF797FD4FF478405D4908805B48A0
:105390000178AFF6BC00FCF729FEC3210A2000E02B
:1053A0001DE0FCF787FD002055490880AFF6C000DE
:1053B000FCF71CFEFE205049087026204D4908705D
:1053C0000EE026204B490870FE204B49087007E08C
:1053D000FE204949087026204649087000E000BFB9
:1053E00000BF82E04348007801283DD0062878D1EC
:1053F000002044490870FEF7C5FFB4210A20FCF7DD
:1054000059FD00203E490880AFF64C10FCF7EEFD38
:10541000C3210A20FCF74EFD4FF47840384908803C
:10542000AFF66410FCF7E2FDB4210A20FCF742FD60
:105430004FF478403249088030480178AFF6681060
:10544000FCF7D4FDC3210A20FCF734FD00202C49D1
:105450000880AFF66410FCF7C9FD262025490870C6
:10546000FE20254908703DE024480078401C23496F
:105470000870B4210A20FCF71DFD00202049088097
:10548000AFF6C410FCF7B2FDC3210A20FCF712FDF1
:105490004FF478401A490880AFF6DC10FCF7A6FDFF
:1054A000B4210A20FCF706FD4FF478401449088027
:1054B00012480178AFF6E010FCF798FDC3210A20EE
:1054C000FCF7F8FC00200E490880AFF6E410FCF76A
:1054D0008DFDFF200849087001200649087001E091
:1054E000FFE700BF00BF00E000BF00BF35E500BF21
:1054F00033E50000190000201800002010000020F3
:10550000589900201200002000C1814001C0804154
:1055100001C0804100C1814001C0804100C1814083
:1055200000C1814001C0804101C0804100C1814073
:1055300000C1814001C0804100C1814001C0804163
:1055400001C0804100C1814001C0804100C1814053
:1055500000C1814001C0804100C1814001C0804143
:1055600001C0804100C1814000C1814001C0804133
:1055700001C0804100C1814001C0804100C1814023
:1055800000C1814001C0804101C0804100C1814013
:1055900000C1814001C0804100C1814001C0804103
:1055A00001C0804100C1814000C1814001C08041F3
:1055B00001C0804100C1814001C0804100C18140E3
:1055C00000C1814001C0804100C1814001C08041D3
:1055D00001C0804100C1814001C0804100C18140C3
:1055E00000C1814001C0804101C0804100C18140B3
:1055F00000C1814001C0804100C1814001C08041A3
:1056000001C0804100C1814000C0C101C30302C28A
:10561000C60607C705C5C404CC0C0DCD0FCFCE0EF2
:105620000ACACB0BC90908C8D81819D91BDBDA1A62
:105630001EDEDF1FDD1D1CDC14D4D515D71716D6D2
:10564000D21213D311D1D010F03031F133F3F23242
:1056500036F6F737F53534F43CFCFD3DFF3F3EFEB2
:10566000FA3A3BFB39F9F83828E8E929EB2B2AEA22
:10567000EE2E2FEF2DEDEC2CE42425E527E7E62692
:1056800022E2E323E12120E0A06061A163A3A26202
:1056900066A6A767A56564A46CACAD6DAF6F6EAE72
:1056A000AA6A6BAB69A9A86878B8B979BB7B7ABAE2
:1056B000BE7E7FBF7DBDBC7CB47475B577B7B67652
:1056C00072B2B373B17170B05090915193535292C2
:1056D00096565797559594549C5C5D9D5F9F9E5E32
:1056E0005A9A9B5B99595898884849894B8B8A4AA2
:1056F0004E8E8F4F8D4D4C8C448485458747468612
:10570000824243834181804000000000000000008D
:105710000000000000000000000000080808080861
:1057200008080000080800000048242412000000B7
:1057300000000000000000000000004848487E24EF
:1057400024247E24242400000000103C5252121C09
:1057500030505052523C1010000000222515150DFB
:105760002A585454522200000000000C1212120A4F
:1057700076252919916E000000060404020000003D
:105780000000000000000000004020101008080881
:10579000080808101020400000020408081010102B
:1057A00010101008080402000000000008086B1C1C
:1057B0001C6B080800000000000000000010101022
:1057C000FE101010000000000000000000000000AB
:1057D00000000000060404020000000000000000B9
:1057E0007E0000000000000000000000000000003B
:1057F00000000000060600000000402020201010DD
:105800000808080404020200000000182442424272
:105810004242424224180000000000101C101010E8
:1058200010101010107C00000000003C424242406A
:1058300020100804427E00000000003C424240204C
:1058400018204042423C0000000000203030282454
:105850002422FE2020F800000000007E0202021E2A
:1058600022404042221C0000000000182402023A9C
:1058700046424242443800000000007E4220201090
:1058800010080808080800000000003C42424224BA
:1058900018244242423C00000000001C22424242C6
:1058A000625C40402418000000000000000018184E
:1058B00000000000181800000000000000000008B0
:1058C0000000000000080808000000402010080444
:1058D00002040810204000000000000000007E00CC
:1058E000007E0000000000000000000204081020FC
:1058F00040201008040200000000003C4242462004
:1059000010101000181800000000001C225A5555F5
:105910005555553A423C0000000000080818141480
:10592000243C224242E700000000001F2222221EE7
:1059300022424242221F00000000007C424201013C
:1059400001010142221C00000000001F22424242CD
:1059500042424242221F00000000003F4212121E3B
:1059600012120242423F00000000003F4212121E8B
:1059700012120202020700000000003C2222010174
:1059800001712122221C0000000000E74242424235
:105990007E42424242E700000000003E080808083C
:1059A00008080808083E00000000007C10101010D5
:1059B000101010101010110F0000007722120A0EA4
:1059C0000A121222227700000000000702020202DF
:1059D00002020202427F00000000007736363636AF
:1059E000362A2A2A2A6B0000000000E346464A4A6B
:1059F00052525262624700000000001C22414141A5
:105A000041414141221C00000000003F424242420D
:105A10003E020202020700000000001C2241414138
:105A20004141414D321C60000000003F4242423E75
:105A30001212222242C700000000007C42420204EF
:105A400018204042423E00000000007F490808083C
:105A500008080808081C0000000000E74242424213
:105A600042424242423C0000000000E742422224FF
:105A700024141418080800000000006B2A2A2A2A9F
:105A80002A36141414140000000000E742242418DD
:105A90001818242442E70000000000772222141482
:105AA00008080808081C00000000007E21201010D3
:105AB00008040442423F000000780808080808086B
:105AC0000808080808087800000002040404080810
:105AD0000810102020204040001E10101010101040
